:02000004F90001
:1000000097110000938101E0172100001301816125
:1000100017050000130585529705000093850552CA
:100020001386C18163FCC5008322050023A055000F
:100030001305450093854500E3E8C5FE1385C1819E
:10004000938501826378B5002320050013054500E0
:10005000E36CB5FEEF000001EF0040496F000000C7
:0400600067800000B5
:10006400130101FF23248100232021011704000030
:100074001304844C170900001309094C33098940FF
:10008400232611002322910013592940630E0900ED
:100094009304000083270400938414001304440091
:1000A400E7800700E31899FE170400001304C4480E
:1000B4001709000013094948330989401359294095
:1000C400630E090093040000832704009384140042
:1000D40013044400E7800700E31899FE8320C1005D
:1000E4000324810083244100032901001301010139
:1000F4006780000003254500135505011375F50FAE
:1001040067800000032545001355850167800000C2
:10011400130101FF232611002324810023229100CF
:10012400130405009384050013050400EFF09FFCFD
:10013400E30C05FE232094008320C10003248100E6
:10014400832441001301010167800000130101FFB2
:100154002326110023248100130405001305040041
:10016400EFF05FFAE30C05FE032504001375F50FA9
:100174008320C10003248100130101016780000072
:10018400130101FF2326110093050500370501F82B
:10019400EFF01FF88320C100130101016780000004
:1001A400130101FF232611002324810013040500F9
:1001B400034504006308050013041400EFF05FFC1A
:1001C4006FF01FFF8320C10003248100130101018C
:1001D40067800000130101FF2326110023248100FE
:1001E40023229100930405001304C0016F00400210
:1001F400B3D7840013F7F700B70700F99387875341
:10020400B387E70003C50700EFF09FF71304C4FFAB
:10021400E35004FE8320C1000324810083244100B1
:100224001301010167800000130101FF232611005F
:100234002324810023229100930405001304C001A8
:100244006F004002B3D7840013F7F700B70700F933
:100254009387C754B387E70003C50700EFF05FF245
:100264001304C4FFE35004FE8320C100032481006F
:10027400832441001301010167800000130101FF81
:10028400232611001375F50FEFF09FEF8320C100B3
:100294001301010167800000130101FF23261100EF
:1002A400EFF01FF08320C1001301010167800000FB
:1002B400130101FD2326110223248102232291022A
:1002C4009304050063460500130401006F00C00297
:1002D4001305D002EFF09FFAB30490406FF0DFFEF5
:1002E4001307A000B3E7E402938707032300F40095
:1002F400B3C4E40213041400E39404FE930701005E
:10030400E300F4FE6F0000011304F4FF034504004E
:10031400EFF0DFF693070100E318F4FE8320C10237
:100324000324810283244102130101036780000036
:10033400130101FF23261100130700009307700027
:1003440063C0E70293162700930700FFB397D70013
:10035400B377F50063860700130717006FF01FFEDD
:10036400EFF09FEC8320C1001301010167800000BE
:10037400130101FF232611001307000093077000E7
:1003840063C0E70293162700930700FFB397D700D3
:10039400B377F50063860700130717006FF01FFE9D
:1003A400EFF05FE38320C1001301010167800000C7
:1003B400130101FC232E1100232C8100232A910018
:1003C400930405002322B1022324C1022326D1026F
:1003D4002328E102232AF102232C0103232E1103F3
:1003E400930741022326F100130400006F00C001AB
:1003F4008327C100138747002326E10003A50700D4
:10040400EFF0DFE713041400B387840003C507008B
:100414006302050C930750026306F506EFF01FE62E
:100424006FF05FFE8327C100138747002326E10096
:1004340003A50700EFF05FE66FF0DFFC8327C10040
:10044400138747002326E10003A50700EFF05FE6CA
:100454006FF05FFB8327C100138747002326E10069
:1004640003A50700EFF0DFF06FF0DFF98327C10089
:10047400138747002326E10003A50700EFF05FEB95
:100484006FF05FF813041400B387840083C7070078
:10049400E38A07F613073006E38CE7F41307300703
:1004A400E382E7F813074006E38AE7F813078005B9
:1004B400E382E7FA13078007E38AE7FA1307600683
:1004C400E392E7FC370500F913050556EFF0DFDC8E
:1004D4006FF05FF38320C101032481018324410170
:1004E4001301010467800000130101FF232611009A
:1004F400370500F91305C55AEFF09FEB370500F9EE
:100504001305055CEFF0DFEA6F00C001370501F861
:10051400EFF0DFC393050500370500F91305455FC8
:10052400EFF01FE9370501F8EFF0DFBDE30C05FE3E
:040534006FF0DFFD88
:100538003031323334353637383941424344454611
:1005480000000000303132333435363738396162D3
:1005580063646566000000003C466C6F6174696EF8
:100568006720706F696E74207072696E74696E6747
:10057800206E6F7420656E61626C652E20506C650C
:1005880061736520456E61626C65206974206174D1
:10059800206273702E682066697273742E2E2E3E48
:1005A8000000000055617274206563686F206465FF
:1005B8006D6F2021200D0A005374617274207479C4
:1005C80070696E67206F6E207465726D696E616CFC
:1005D80020746F2073656E64206368617261637450
:1005E80065722E2E2E200D0A000000006563686FCC
:1005F800206368617261637465723A202563200D17
:100608000A000000000000000000000000000000D8
:020618000000E0
:04000005F9000000FE
:00000001FF
